:100000000C94F7050C9414060C9414060C94140626
:100010000C9414060C9414060C9414060C941406F8
:100020000C9414060C9414060C9414060C941406E8
:100030000C9414060C9414060C9414060C949F2B28
:100040000C9414060C9414060C94D51B0C94311CBF
:100050000C9414060C9414060C9414060C941406B8
:100060000C9414060C9414060C9414060C941406A8
:100070000C9414060C9414060C947A1C0C94D91C41
:100080000C9414060C945C190C94140659115B1111
:100090005D115F11611163116511671169116B11B8
:1000A000541154116F117111731175117711791168
:1000B0006D111D1AA519A519A519A519A519A51917
:1000C000A5192C1AA519A519A519A519A519A519B8
:1000D000A5192C1AA519A519A519A519A519A519A8
:1000E000A519341AA519A519A519A519A519A51990
:1000F000A5194D1AA519A519A519A519A519A51967
:10010000A519341AA519A519A519A519A519A5196F
:10011000A519CC19A519A519A519A519A519A519C8
:10012000A519DB19A519A519A519A519A519A519A9
:10013000A519C219A519A519A519A519A519A519B2
:10014000A5197F1AA519A519A519A519A519A519E4
:10015000A519B619A519A519A519A519A519A5199E
:10016000A519E419A519A519A519A519A519A51960
:10017000A519021AA519A519A519A519A519A51931
:10018000A519021AA519A519A519A519A519A51921
:10019000A519021AA519A519A519A519A519A51911
:1001A000A519021AA519A519A519A519A519A51901
:1001B000A519081AA519A519A519A519A519A519EB
:1001C000A519C819A519A519A519A519A519A5191C
:1001D000A519081AA519A519A519A519A519A519CB
:1001E000A519C819A519A519A519A519A519A519FC
:1001F000A5195D1AA519A519A519A519A519A51956
:10020000A5197B19A519A519A519A519A519A51928
:10021000A5197B19A519A519A519A519A519A51918
:10022000A5199019A519A519A519A519A519A519F3
:10023000A519791AA519A519A519A519A519A519F9
:10024000A519791ADC1DA91DA91DA91DA91DA91D86
:10025000A91DA91DA91DA91DA91D281F281F281FEB
:10026000281F281F281F281F281F281F281FA91DD7
:10027000A91DA91DA91DA91DA91DA91DA91DA91D4E
:10028000A91DA91DA91DA91DA91DA91DA91DA91D3E
:10029000A91DA91DA91DA91DA91DA91DA91DA91D2E
:1002A000A91DA91DA91DA91DA91D5B1FA91DA91D6A
:1002B000A91DA91DA91DA91DA91DA91DA91DA91D0E
:1002C000FA1F6D1FA91DA91DA91DA91D6D1FA91D1F
:1002D000A91DA91DA91DA91DA91D5B1FA91DA91D3A
:1002E000931FA91DE01DA91DA91D5B1F6E616E0056
:1002F000696E660000407A10F35A00A0724E180929
:100300000010A5D4E80000E87648170000E40B547C
:10031000020000CA9A3B000000E1F505000080964B
:100320009800000040420F000000A086010000007D
:10033000102700000000E803000000006400000037
:1003400000000A00000000000100000000002C7600
:10035000D888DC674F0823DFC1DFAE59E1B1B7961B
:10036000E5E3E453C63AE651997696E8E6C2842678
:10037000EB898C9B62ED407C6FFCEFBC9C9F40F254
:10038000BAA56FA5F490055A2AF75C936B6CF967D0
:100390006DC11BFCE0E40D47FEF520E6B500D0ED95
:1003A000902E0300943577050080841E08000020FD
:1003B0004E0A000000C80C333333330F986E12839B
:1003C0001141EF8D2114893BE65516CFFEE6DB186F
:1003D000D1844B381BF77C1D901DA4BBE424203234
:1003E00084725E228100C9F124ECA1E53D2715FD50
:1003F00040FD6BFD8BFDA4FDB9FDCCFDDCFDEAFDF0
:10040000F7FD03FE0EFE19FE22FE2BFE34FE3CFE1F
:1004100043FE4BFE52FE58FE5FFE65FE6BFE71FE14
:1004200076FE7CFE81FE86FE8BFE90FE94FE99FE9B
:100430009DFEA1FEA6FEAAFEAEFEB2FEB6FEB9FE6F
:10044000BDFEC1FEC4FEC8FECBFECEFED2FED5FE72
:10045000D8FEDBFEDEFEE1FEE4FEE7FEEAFEEDFE98
:10046000F0FEF3FEF5FEF8FEFBFEFDFE00FF03FFCF
:1004700005FF08FF0AFF0DFF0FFF11FF14FF16FF16
:1004800018FF1BFF1DFF1FFF21FF24FF26FF28FF72
:100490002AFF2CFF2EFF30FF32FF34FF37FF39FFDA
:1004A0003AFF3CFF3EFF40FF42FF44FF46FF48FF4C
:1004B0004AFF4CFF4EFF4FFF51FF53FF55FF56FFC2
:1004C00058FF5AFF5CFF5DFF5FFF61FF63FF64FF42
:1004D00066FF68FF69FF6BFF6CFF6EFF70FF71FFC7
:1004E00073FF74FF76FF78FF79FF7BFF7CFF7EFF51
:1004F0007FFF81FF82FF84FF85FF87FF88FF8AFFE0
:100500008BFF8CFF8EFF8FFF91FF92FF94FF95FF73
:1005100096FF98FF99FF9BFF9CFF9DFF9FFFA0FF09
:10052000A1FFA3FFA4FFA5FFA7FFA8FFA9FFABFFA3
:10053000ACFFADFFAFFFB0FFB1FFB2FFB4FFB5FF3F
:10054000B6FFB7FFB9FFBAFFBBFFBCFFBEFFBFFFDF
:10055000C0FFC1FFC3FFC4FFC5FFC6FFC7FFC9FF80
:10056000CAFFCBFFCCFFCDFFCFFFD0FFD1FFD2FF23
:10057000D3FFD4FFD6FFD7FFD8FFD9FFDAFFDBFFC9
:10058000DCFFDEFFDFFFE0FFE1FFE2FFE3FFE4FF70
:10059000E5FFE6FFE8FFE9FFEAFFEBFFECFFEDFF19
:1005A000EEFFEFFFF0FFF1FFF2FFF4FFF5FFF6FFC4
:1005B000F7FFF8FFF9FFFAFFFBFFFCFFFDFFFEFF6F
:1005C000FFFF000001000200030004000500060018
:1005D000080009000A000B000C000D000E000F00BF
:1005E000100011001200130014001500160017006F
:1005F000180019001A001B001C001D001E001F001F
:1006000020002100220023002400240025002600D1
:100610002700280029002A002B002C002D002E0086
:100620002F00300031003200330034003500360036
:100630003700380039003A003A003B003C003D00EA
:100640003E003F004000410042004300440045009E
:10065000460047004800480049004A004B004C0053
:100660004D004E004F005000510052005300530007
:100670005400550056005700580059005A005B00BE
:100680005C005C005D005E005F0060006100620075
:10069000630064006500650066006700680069002B
:1006A0006A006B006C006D006D006E006F007000E2
:1006B0007100720073007400750075007600770099
:1006C000780079007A007B007C007C007D007E0051
:1006D0007F00800081008200830083008400850009
:1006E00086008700880089008A008A008B008C00C1
:1006F0008D008E008F009000910091009200930079
:1007000094009500960097009700980099009A0031
:100710009B009C009D009D009E009F00A000A100EA
:10072000A200A300A400A400A500A600A700A800A2
:10073000A900AA00AA00AB00AC00AD00AE00AF005B
:10074000B000B000B100B200B300B400B500B60014
:10075000B600B700B800B900BA00BB00BC00BC00CE
:10076000BD00BE00BF00C000C100C200C200C30087
:10077000C400C500C600C700C800C900C900CA003F
:10078000CB00CC00CD00CE00CF00CF00D000D100F8
:10079000D200D300D400D500D500D600D700D800B1
:1007A000D900DA00DB00DB00DC00DD00DE00DF006A
:1007B000E000E100E200E200E300E400E500E60022
:1007C000E700E800E900E900EA00EB00EC00ED00DA
:1007D000EE00EF00EF00F000F100F200F300F40093
:1007E000F500F600F600F700F800F900FA00FB004B
:1007F000FC00FD00FE00FE00FF00000101010201FF
:1008000003010401050105010601070108010901B1
:100810000A010B010C010D010D010E010F01100168
:10082000110112011301140115011601160117011E
:10083000180119011A011B011C011D011E011F01D4
:100840001F0120012101220123012401250126018C
:100850002701280129012A012A012B012C012D0140
:100860002E012F01300131013201330134013501F4
:10087000360136013701380139013A013B013C01AB
:100880003D013E013F01400141014201430144015C
:100890004501450146014701480149014A014B0113
:1008A0004C014D014E014F015001510152015301C4
:1008B0005401550156015701580159015A015B0174
:1008C0005C015D015E015F01600161016201630124
:1008D0006401650166016701680169016A016B01D4
:1008E0006C016D016E016F01700171017201730184
:1008F0007401750176017701780179017A017B0134
:100900007C017D017E017F018001810182018301E3
:100910008401850186018701880189018A018C0192
:100920008D018E018F01900191019201930194013B
:10093000950196019701980199019B019C019D01E8
:100940009E019F01A001A101A201A301A501A60191
:10095000A701A801A901AA01AB01AC01AE01AF0139
:10096000B001B101B201B301B401B601B701B801E0
:10097000B901BA01BB01BC01BE01BF01C001C10187
:10098000C201C401C501C601C701C801CA01CB012A
:10099000CC01CD01CE01D001D101D201D301D501CD
:1009A000D601D701D801D901DB01DC01DD01DF016E
:1009B000E001E101E201E401E501E601E701E9010D
:1009C000EA01EB01ED01EE01EF01F101F201F301AA
:1009D000F501F601F701F901FA01FB01FD01FE0144
:1009E000FF010102020203020502060208020902D7
:1009F0000A020C020D020F0210021102130214026D
:100A00001602170219021A021C021D021F022002FE
:100A10002202230224022602280229022B022C028F
:100A20002E022F023102320234023502370239021D
:100A30003A023C023D023F024002420244024502A9
:100A4000470249024A024C024E024F02510253022F
:100A50005402560258025A025B025D025F026102B2
:100A6000620264026602680269026B026D026F0232
:100A7000710273027402760278027A027C027E02AC
:100A8000800282028402860288028A028C028E021E
:100A9000900292029402960298029A029C029E028E
:100AA000A002A202A402A602A902AB02AD02AF02FA
:100AB000B102B402B602B802BA02BD02BF02C1025C
:100AC000C302C602C802CB02CD02CF02D202D402B8
:100AD000D702D902DC02DE02E102E302E602E90209
:100AE000EB02EE02F002F302F602F902FB02FE0252
:100AF00001030403070309030C030F031203150387
:100B000018031B031E032103240328032B032E03B6
:100B10003103340338033B033E03420345034903D7
:100B20004C035003530357035B035E0362036603E6
:100B30006A036E037103750379037E0382038603E0
:100B40008A038E03930397039C03A003A503A903C1
:100B5000AE03B303B803BC03C103C703CC03D10383
:100B6000D603DC03E103E703EC03F203F803FE031F
:100B700004040A04110417041E0424042B04320480
:100B8000390440044804500457045F0467047004A7
:100B9000780481048A0493049D04A704B104BB046F
:100BA000C604D104DC04E804F40400050D051B05AB
:100BB0002905370546055605670578058A059D050B
:100BC000B105C705DD05F5050E062A0647066606CA
:100BD0008806AD06D606030736076F07B107FD077F
:100BE0005808C9085A09210A560BC10D2C101124A6
:100BF0001FBECFEFD0E1DEBFCDBF18E0A0E0B1E077
:100C0000E2EEFAE602C005900D92A83BB107D9F7D3
:100C10002DE0A8EBB8E001C01D92A336B207E1F7C2
:100C20000E9473120C946F350C9400000E94F12402
:100C300068EB78E08EEB98E00C941625CF930E9439
:100C4000F124C82F811104C087EF91E00E94261B78
:100C50008C2FCF91089561E071E080E091E00C94D9
:100C6000692ACF93DF9300D000D000D0CDB7DEB794
:100C700086E0EEEBF8E0DE01119601900D928A9588
:100C8000E1F729813A814B815C816D817E8180E031
:100C900090E026960FB6F894DEBF0FBECDBFDF9171
:100CA000CF910895CF93DF9300D000D000D0CDB77F
:100CB000DEB786E0E8EBF8E0DE01119601900D92D8
:100CC0008A95E1F729813A814B815C816D817E8132
:100CD00080E090E026960FB6F894DEBF0FBECDBF41
:100CE000DF91CF910895EF92FF920F931F93CF93CF
:100CF000FC018081882309F44BC091E0C0E013C05F
:100D0000992369F0C83008F04AC0AC2FB0E0AA0FB0
:100D1000BB1FAC53B74FED93FC93CF5F90E0319680
:100D20008081882341F0803259F7108291E031961A
:100D300080818111F8CFCC2359F160910E0170911F
:100D40000F016115710521F1E090C408F090C5080C
:100D50000EE011E008C00A5F1F4FF8016081718149
:100D600061157105A9F0C7010E94B934892B99F763
:100D7000D8011296ED91FC91139764EC78E08C2FDA
:100D800090E00995CF911F910F91FF90EF900895FA
:100D900081E0CF911F910F91FF90EF90089582E035
:100DA000CF911F910F91FF90EF900895CF93DF9314
:100DB0008CE092E00E94261B82E292E00E94261BB9
:100DC00080910E0190910F01009789F0CEE0D1E063
:100DD0000E94261B8C819D810E94261B81EC93E042
:100DE0000E94261B269688819981009789F780E0CA
:100DF00090E0DF91CF910895CF938091F508909185
:100E0000F6080E94A51A811125C08091F5089091DD
:100E1000F6080E94B31AC82F0E94F51A8091D608CE
:100E2000CD30D1F0CA30C1F0C830A1F1CF3791F147
:100E3000E82FF0E0E952F74FC0838F5F8E31B0F5B5
:100E40008093D6088091F5089091F6080E94A51A23
:100E50008823D9F2CF910895882319F1E82FF0E083
:100E6000E952F74F10828F5F8093D60887ED98E0A4
:100E70000E9473061092D608880F990BFC01E45764
:100E8000FE4F808191810E94261B83ED97E00E9496
:100E9000261BB3CF882309F4B0CF81508093D608A6
:100EA000ACCF81ED97E00E94261BA7CF1092D60809
:100EB000A4CFCF92DF92EF92FF920F931F93CF9325
:100EC000DF938C017B01FB01C280D38065E674E077
:100ED000C6010E94B934EC01892B79F40330110565
:100EE0000CF1C2E0D0E0CE01DF91CF911F910F91C4
:100EF000FF90EF90DF90CF900895033011051CF420
:100F0000C3E0D0E0F0CF0330110559F7F701848139
:100F100095810E94B8338C01F3E0F817B0F4C4E077
:100F2000D0E0E1CF0E944D158F3FFFE79F07C9F149
:100F30009F938F9388E492E09F938F930E944B201E
:100F40000F900F900F900F90CECF6BE572E0C6011F
:100F50000E94B934EC01892B49F16FE772E0C601B8
:100F60000E94B934EC01892BD1F681E08017B8F2E8
:100F7000802F0E9444158F3FEFE79E07F1F19F936A
:100F80008F9311271F930F938CE992E09F938F9378
:100F90000E944B200F900F900F900F900F900F908A
:100FA000A2CF87E392E00E94261B9DCF802F0E9454
:100FB0003B158F3F2FE7920791F09F938F93112757
:100FC0001F930F9381E792E09F938F930E944B2092
:100FD0000F900F900F900F900F900F9084CF1127CC
:100FE0001F930F938FE592E09F938F930E944B2066
:100FF0000F900F900F900F9076CF11271F930F93A4
:1010000087E892E09F938F930E944B200F900F9060
:101010000F900F9068CF02971CF082E090E0089547
:101020000E940C1680E090E0089502971CF082E088
:1010300090E008950E948F1780E090E00895029755
:101040001CF082E090E008950E94931780E090E009
:1010500008956F927F928F929F92AF92BF92CF929C
:10106000DF92EF92FF920F931F93CF93DF93CDB751
:10107000DEB72C970FB6F894DEBF0FBECDBF0E942F
:101080000C160E94AB291F929F931F928F931F9261
:101090007F931F926F938DEA92E09F938F930E94AC
:1010A0004B200E940E121F928F938CEC92E09F9324
:1010B0008F930E944B200E9431062F8338874987E7
:1010C0005A876B877C870F811885E984FA84CB84E3
:1010D000DC840E94520629833A834B835C836D83B0
:1010E0007E830FB6F894DEBF0FBECDBF0F3F9FE7E4
:1010F000190709F448C02FEFE2162FE7F20609F4AA
:1011000042C08FEFC8168FE7D806E9F1A980BA80F0
:101110009FEFA9169FE7B906B1F18B809C802FEF56
:1011200082162FE7920679F16D807E808FEF681628
:101130008FE7780641F1DF92CF92FF92EF921F93F3
:101140000F938BEE92E09F938F930E944B207F92A0
:101150006F929F928F92BF92AF928CEF92E09F938B
:101160008F930E944B200FB6F894DEBF0FBECDBF09
:101170000E94B3128F3F2FE7920779F487E392E042
:101180000E94261B16C088ED92E00E94261B0E943A
:10119000B3128F3F2FE7920789F39F938F938CE0D1
:1011A00093E09F938F930E944B200F900F900F908E
:1011B0000F9080E090E02C960FB6F894DEBF0FBE43
:1011C000CDBFDF91CF911F910F91FF90EF90DF90F6
:1011D000CF90BF90AF909F908F907F906F90089529
:1011E0000F931F93CF93DF93833091053CF483E0FB
:1011F00090E0DF91CF911F910F910895039739F0FF
:1012000082E090E0DF91CF911F910F910895EB0163
:101210008A819B810E94B8338C01843018F084E06D
:1012200090E0E7CF8C819D810E94B833EC01602F64
:101230000E943215DF93CF9311271F930F9380E203
:1012400093E09F938F930E944B200F900F900F90ED
:101250000F900F900F9080E090E0CBCF0F931F93F3
:10126000CF93DF93833091053CF483E090E0DF91EE
:10127000CF911F910F910895039739F082E090E08C
:10128000DF91CF911F910F910895EB018A819B818E
:101290000E94B8338C01843018F084E090E0E7CFEE
:1012A0008C819D810E94B833EC01BC01802F0E948B
:1012B0000316DF93CF9311271F930F9383E393E0DC
:1012C0009F938F930E944B200F900F900F900F9041
:1012D0000F900F9080E090E0CACF0F931F93CF93B1
:1012E000DF938230910554F0029781F0C2E0D0E0A4
:1012F000CE01DF91CF911F910F910895C3E0D0E00F
:10130000CE01DF91CF911F910F910895FB010281D2
:1013100013816AEA74E0C8010E94B934EC01892B98
:10132000A9F480E00E94521581E00E94521582E0EB
:101330000E94521583E00E9452158EE493E09F9321
:101340008F930E944B200F900F90D2CFC8010E9424
:10135000B833843018F0C4E0D0E0CACF0E945215F0
:10136000C0E0D0E0C5CF0F931F93CF93DF938230BF
:10137000910554F0029781F0C2E0D0E0CE01DF91F8
:10138000CF911F910F910895C3E0D0E0CE01DF917E
:10139000CF911F910F910895FB01028113816AEA99
:1013A00074E0C8010E94B934EC01892BA9F480E0F3
:1013B0000E94641581E00E94641582E00E94641519
:1013C00083E00E94641584E693E09F938F930E94CC
:1013D0004B200F900F90D2CFC8010E94B8338430B9
:1013E00018F0C4E0D0E0CACF0E946415C0E0D0E09D
:1013F000C5CF823091052CF0029731F082E090E069
:10140000089583E090E00895FB01828193810E941A
:10141000B833843018F084E090E008950E94C0153D
:1014200080E090E00895823091052CF0029731F031
:1014300082E090E0089583E090E00895FB018281CE
:1014400093810E94B833843018F084E090E00895CE
:101450000E94771580E090E008950F931F93CF933B
:10146000DF93843091053CF483E090E0DF91CF91ED
:101470001F910F910895049739F082E090E0DF9179
:10148000CF911F910F910895EB018C819D810E9456
:10149000B833082F8A819B810E94B833182F8E8120
:1014A0009F810E94B833143018F084E090E0DECFC2
:1014B000AC01602F812F0E948B1580E090E0D6CF89
:1014C000CF93DF93823091053CF0029751F082E098
:1014D00090E0DF91CF91089583E090E0DF91CF918C
:1014E0000895FB01828193810E94B833EC0184301E
:1014F00028F084E090E0DF91CF9108950E94F115EB
:101500009F938F93DD27DF93CF9380E293E09F93A8
:101510008F930E944B200F900F900F900F900F9081
:101520000F9080E090E0D5CFFF920F931F93CF9361
:10153000DF938530910544F483E090E0DF91CF9113
:101540001F910F91FF900895059741F082E090E080
:10155000DF91CF911F910F91FF900895EB018A8148
:101560009B810E94B833182F8C819D810E94B833D3
:10157000082F8E819F810E94B833F82E8885998527
:101580000E94B833282F4F2D602F812F0E948D2964
:1015900080E090E0D3CF02971CF082E090E00895C5
:1015A0000E94AB291F929F931F928F931F927F934C
:1015B0001F926F938BE793E09F938F930E944B2032
:1015C0008DB79EB70A960FB6F8949EBF0FBE8DBF1B
:1015D00080E090E00895CF93DF93823091053CF056
:1015E000029751F082E090E0DF91CF91089583E07F
:1015F00090E0DF91CF910895EB018A819B810E9459
:10160000B833853608F084E60E9402128B818F93EE
:101610008A818F938EE993E09F938F930E944B2052
:101620000F900F900F900F9080E090E0DF91CF919E
:10163000089502971CF082E090E008950E940E1237
:101640001F928F938CEC92E09F938F930E944B207C
:101650000F900F900F900F9080E090E008956F92A0
:101660007F928F929F92AF92BF92CF92DF92EF9232
:10167000FF920F931F93CF93DF93CDB7DEB72C97D5
:101680000FB6F894DEBF0FBECDBF0297BCF082E06C
:1016900090E02C960FB6F894DEBF0FBECDBFDF9161
:1016A000CF911F910F91FF90EF90DF90CF90BF905F
:1016B000AF909F908F907F906F9008950E94310619
:1016C0002F83388749875A876B877C870F811885D6
:1016D000E984FA84CB84DC840E94520629833A830D
:1016E0004B835C836D837E830F3F8FE7180709F47C
:1016F0003FC09FEFE9169FE7F906D1F18FEFC816BB
:101700008FE7D806A9F1A980BA809FEFA9169FE7B5
:10171000B90671F18B809C808FEF88168FE7980651
:1017200039F16D807E809FEF69169FE7790601F1A0
:10173000DF92CF92FF92EF921F930F938BEE92E086
:101740009F938F930E944B207F926F929F928F92D4
:10175000BF92AF928CEF92E09F938F930E944B20A9
:101760000FB6F894DEBF0FBECDBF80E090E091CF02
:1017700088ED92E00E94261B80E090E08ACF0297DD
:101780001CF082E090E008950E94B3128F3F2FE793
:10179000920779F09F938F938CE093E09F938F93C0
:1017A0000E944B200F900F900F900F9080E090E0E0
:1017B000089587E392E00E94261B80E090E0089560
:1017C0000E94C81A0E944E1B9093F6088093F50859
:1017D0008EE1E7EDF8E0DF011D928A95E9F71092BE
:1017E000D6088DEA93E00E94261B83ED97E00C94C7
:1017F000261B68E071E087E091E00C94692A0E9462
:10180000531B85E00E94EB2B0E94D01B909387090D
:101810008093860987E499E09093FD088093FC0803
:1018200083E099E09093FB088093FA0808950E9462
:10183000FF0B67E971E086E991E00C94692ACF9289
:10184000DF92EF92FF920F93CF93DF93CDB7DEB786
:1018500060970FB6F894DEBF0FBECDBFCE010196E4
:101860006C018FE0F60111928A95E9F7E091FC088E
:10187000F091FD08808189838EEFE82E88E0F82EB4
:1018800000E021E041E0B60180E00E94302CAE0192
:10189000405F5F4FB601C7010E94532C6889C601A3
:1018A0000E94B71B60960FB6F894DEBF0FBECDBF87
:1018B000DF91CF910F91FF90EF90DF90CF9008953F
:1018C000E091FC08F091FD086181643008F0089512
:1018D000828193819827892798270E9432150C943A
:1018E0001F0CE091FC08F091FD088181843008F024
:1018F00008950E9452150C941F0CE091FC08F09181
:10190000FD088181843008F008950E9464150C94CC
:101910001F0CE091FC08F091FD088181843008F0F3
:1019200008950E94C0150C941F0CE091FC08F091E2
:10193000FD088181843008F008950E9477150C9489
:101940001F0CE091FC08F091FD088181843008F0C3
:1019500008954381548154274527542762810E946A
:101960008B150C941F0CE091FC08F091FD0881810F
:10197000843008F00895628173817627672776277F
:101980000E9403160C941F0CE091FC08F091FD08D6
:1019900024814381628181810E948D290C941F0CD6
:1019A000E091FC08F091FD088181853608F084E61D
:1019B0000E9402120C941F0CEF92FF920F93CF9390
:1019C000DF93CDB7DEB7C454D1090FB6F894DEBFAC
:1019D0000FBECDBFE091FC08F091FD0891819330DE
:1019E00018F48281843068F0CC5BDF4F0FB6F89436
:1019F000DEBF0FBECDBFDF91CF910F91FF90EF9073
:101A00000895A091FA08B091FB0820812C931196BB
:101A10009C93119712968C93992349F0913061F120
:101A20000E944D156091FA087091FB0806C00E9453
:101A30003B156091FA087091FB08FB019383848346
:101A40008EEFE82E88E0F82E07E021E045E080E008
:101A500090E00E94F02BAE014C5B5F4FBE016F5FC8
:101A60007F4FC7010E94532C25966FAD2597CE015D
:101A700001960E94B71BB8CF0E9444156091FA08E6
:101A80007091FB08DACFEF92FF920F931F93CF93E1
:101A9000DF93CDB7DEB7C454D1090FB6F894DEBFDB
:101AA0000FBECDBFE091FC08F091FD08118114300C
:101AB00070F0CC5BDF4F0FB6F894DEBF0FBECDBF2A
:101AC000DF91CF911F910F91FF90EF900895812F9B
:101AD0000E94F115E091FA08F091FB08A091FC0832
:101AE000B091FD082C9120831183928383838EEF24
:101AF000E82E88E0F82E07E021E044E0BF0180E016
:101B000090E00E94F02BAE014C5B5F4FBE016F5F17
:101B10007F4FC7010E94532C25966FAD2597CE01AC
:101B200001960E94B71BC5CFEF92FF920F931F93B0
:101B3000CF93DF93CDB7DEB7C454D1090FB6F89475
:101B4000DEBF0FBECDBFE091FC08F091FD088081A3
:101B5000E091FA08F091FB08808380E00E943B1539
:101B6000E091FA08F091FB0898278927982792833B
:101B7000818381E00E943B15E091FA08F091FB0817
:101B80009827892798279483838382E00E943B15B6
:101B9000E091FA08F091FB08982789279827968307
:101BA000858383E00E943B15E091FA08F091FB08E1
:101BB000982789279827908787830E944D15E09161
:101BC000FA08F091FB089827892798279287818740
:101BD00080E00E94F115E091FA08F091FB08982747
:101BE000892798279487838781E00E94F115E091E7
:101BF000FA08F091FB089827892798279687858708
:101C000082E00E94F115E091FA08F091FB08982714
:101C100089279827908B878783E00E94F115E091B0
:101C2000FA08F091FB08982789279827928B818BD7
:101C300080E00E94E815E091FA08F091FB089827EF
:101C400089279827948B838B81E00E94E815E09187
:101C5000FA08F091FB08982789279827968B858B9F
:101C600082E00E94E815E091FA08F091FB089827BD
:101C700089279827908F878B83E00E94E815E09151
:101C8000FA08F091FB08982789279827928F818F6F
:101C90000E9400160091FA081091FB0881FB992719
:101CA00090F9F801938F83FB992790F9948F85FB26
:101CB000992790F9958F282F207830E0220F232F35
:101CC000221F330B3195268F982F9170978F82FBAF
:101CD000992790F990A384FB992790F991A386FB0B
:101CE000882780F982A380E00E94FA15F80183A377
:101CF0000091FA081091FB0881E00E94FA15F801A2
:101D000084A30091FA081091FB0882E00E94FA1562
:101D1000F80185A30091FA081091FB0883E00E9466
:101D2000FA15F80186A36091FA087091FB082EEF6E
:101D3000E22E28E0F22E07E021E047E280E090E08A
:101D40000E94F02BAE014C5B5F4FBE016F5F7F4F77
:101D5000C7010E94532C25966FAD2597CE010196A1
:101D60000E94B71BCC5BDF4F0FB6F894DEBF0FBEEF
:101D7000CDBFDF91CF911F910F91FF90EF9008950C
:101D8000EF92FF920F93CF93DF93CDB7DEB7C4549A
:101D9000D1090FB6F894DEBF0FBECDBF0E94AB29AC
:101DA000E091FA08F091FB08A091FC08B091FD08C1
:101DB0002C91208361837283838394838EEFE82E3A
:101DC00088E0F82E07E021E045E0BF0180E090E0E8
:101DD0000E94F02BAE014C5B5F4FBE016F5F7F4FE7
:101DE000C7010E94532C25966FAD2597CE01019611
:101DF0000E94B71BCC5BDF4F0FB6F894DEBF0FBE5F
:101E0000CDBFDF91CF910F91FF90EF900895EF92AA
:101E1000FF920F93CF93DF93CDB7DEB7C454D109B0
:101E20000FB6F894DEBF0FBECDBF0E940E126091B8
:101E3000FA087091FB08E091FC08F091FD08908190
:101E4000FB01908381838EEFE82E88E0F82E07E077
:101E500021E042E080E090E00E94F02BAE014C5B7C
:101E60005F4FBE016F5F7F4FC7010E94532C2596C5
:101E70006FAD2597CE0101960E94B71BCC5BDF4F5B
:101E80000FB6F894DEBF0FBECDBFDF91CF910F919B
:101E9000FF90EF900895CF92DF92EF92FF920F9311
:101EA0001F93CF93DF93CDB7DEB7C055D1090FB6DF
:101EB000F894DEBF0FBECDBF0E943106D22EC32ED6
:101EC000F42EE52E162F072F2B962FAF2B972C963F
:101ED0003FAF2C972D964FAF2D972E965FAF2E9735
:101EE0002F966FAF2F9760967FAF60970E94520634
:101EF00025962FAF259726963FAF269727964FAF6B
:101F0000279728965FAF289729966FAF29972A962B
:101F10007FAF2A97E091FA08F091FB08A091FC08A6
:101F2000B091FD088C918083C182D282E382F482D9
:101F30000583168337832087518742877387648799
:101F40008EEFE82E88E0F82E07E021E04DE0BF019B
:101F500080E090E00E94F02BAE01405B5F4FBE013D
:101F60006F5F7F4FC7010E94532C61966FAD6197E1
:101F7000CE0101960E94B71BC05BDF4F0FB6F894ED
:101F8000DEBF0FBECDBFDF91CF911F910F91FF90AC
:101F9000EF90DF90CF900895EF92FF920F93CF9341
:101FA000DF93CDB7DEB7C454D1090FB6F894DEBFC6
:101FB0000FBECDBF0E94B312E091FA08F091FB086A
:101FC000A091FC08B091FD082C912083918382831D
:101FD0008EEFE82E88E0F82E07E021E043E0BF0115
:101FE00080E090E00E94F02BAE014C5B5F4FBE01A1
:101FF0006F5F7F4FC7010E94532C25966FAD2597C9
:10200000CE0101960E94B71BCC5BDF4F0FB6F89450
:10201000DEBF0FBECDBFDF91CF910F91FF90EF904C
:102020000895EF92FF920F931F93CF93DF93CDB755
:10203000DEB7CA54D1090FB6F894DEBF0FBECDBFCC
:10204000E091FC08F091FD088081E091FA08F091A0
:10205000FB08808380E00E943B15E091FA08F09134
:10206000FB089183828381E00E943B15E091FA088E
:10207000F091FB089383848382E00E943B15E091FA
:10208000FA08F091FB089583868383E00E943B1554
:10209000E091FA08F091FB089783808780E00E9426
:1020A0004415E091FA08F091FB089187828781E05E
:1020B0000E944415E091FA08F091FB089387848709
:1020C0000E944D15E091FA08F091FB0895878687EC
:1020D00080E00E94F115E091FA08F091FB089787E3
:1020E000808B81E00E94F115E091FA08F091FB08E5
:1020F000918B828B82E00E94F115E091FA08F091B9
:10210000FB08938B848B83E00E94F115E091FA0821
:10211000F091FB08958B868B80E00E94DF15E091A3
:10212000FA08F091FB08978B808F81E00E94DF1501
:10213000E091FA08F091FB08918F828F82E00E9473
:10214000DF15E091FA08F091FB08938F848F83E00C
:102150000E94DF15E091FA08F091FB08958F868FB9
:102160000E94AB290091FA081091FB08F801678FD3
:1021700070A381A392A30E940E12F80183A30E9470
:102180003106E091FA08F091FB08A0E0B0E0B22F30
:10219000832F932F990F990B8A2B9B2B95A384A3A5
:1021A00020E030E0342F852F952F990F990B822B4B
:1021B000932B97A386A320E030E0362F872F972F0D
:1021C000990F990B822B932B91A780A70E945206FF
:1021D000E091FA08F091FB08A0E0B0E0B22F832F65
:1021E000932F990F990B8A2B9B2B93A782A720E003
:1021F00030E0342F852F952F990F990B822B932B3D
:1022000095A784A720E030E0362F872F972F990FCE
:10221000990B822B932B97A786A70E94B3126091EC
:10222000FA087091FB08982789279827FB0191AB42
:1022300080AB8EEFE82E88E0F82E07E021E042E345
:1022400080E090E00E94F02BAE01465B5F4FBE0144
:102250006F5F7F4FC7010E94532C2B966FAD2B975A
:10226000CE0101960E94B71BC65BDF4F0FB6F894F4
:10227000DEBF0FBECDBFDF91CF911F910F91FF90B9
:10228000EF900895E091FC08F091FD088081A09105
:10229000FA08B091FB088C93E0818E2F90E0FC014E
:1022A0003197E331F10508F00895EA5BFF4F0C9494
:1022B00061330C94600C0C94DC0C0C94430D0C9466
:1022C000710C0C947D0C0C94890C0C94950C0C9452
:1022D000A10C0C94B30C0C94940D0C9411100C9450
:1022E000C40C0C94C00E0C94D00C0C94070F0C94DE
:1022F0004B0F0C94CC0FCF93C1E080918609909145
:1023000087090E94A51A811118C0809186099091B1
:1023100087090E94B31A9091F808911110C08A3C65
:1023200061F7C093F8081092F708809186099091A0
:1023300087090E94A51A882341F3CF9108958F3E03
:1023400009F18D3BF1F19091F908992349F0109230
:10235000F9088C3DA1F18B3D81F18E3D09F48FEEA2
:10236000E091F70891E09E0F9093F708F0E0ED5AA6
:10237000F54F80838091F708833408F4BECF109224
:10238000F808BBCF1092F8086091F70842E459E0D2
:1023900083E59AE00E94372D8330910511F1843056
:1023A0009105A1F0019731F78BE897E00E94261B79
:1023B00082E499E00E944211DDCF8DEBD1CF8AEC0F
:1023C000CFCF81E08093F908CF91089583EB97E018
:1023D0000E94261B6091F70883E59AE00E94351B56
:1023E000C9CF8FE997E00E94261B6091F70883E52B
:1023F0009AE00E94351BBECF40E068EE73E087E0B4
:102400000C940E18CF93C82F853608F0C4E68C2F95
:102410000E947018C0938809CF910895809188090F
:102420000895E0918A09F0918B098081882341F019
:10243000813029F48091890980FD19C0089508959B
:102440008091890980FD25C080E00E945C2A882354
:10245000A9F380918909816080938909AB98AA9832
:1024600044EF51E060E070E080E00C94502A80E09E
:102470000E945C2A882311F3809189098E7F8093C2
:102480008909AB9A48EB5BE060E070E080E00C9477
:10249000502A80E00E945C2A882381F28091890979
:1024A0008E7F80938909AB9AAA9A44EF51E060E04D
:1024B00070E080E00C94502AA39AAB98A29AAA9854
:1024C000E9E8F9E080818E7F8D7F80838FE99CE051
:1024D00092838183AB9AAA9A08956EE971E08DE99F
:1024E00091E00C94692A0E94312A0E94E00B0E941C
:1024F00098170E949A170E945C120E94B5120E94BF
:10250000A5290E94FC110E94FF0B0E946D120E94DF
:10251000F90B0E942C150E94170C0E944B2B0E9455
:102520001E060E942B060E94A0120E94AD120E945D
:10253000C1170E94C3170E944D2BFDCF0C94182485
:10254000CF930E942A22C82F811104C083EC97E008
:102550000E94261B8C2FCF91089565EA71E084EAD2
:1025600091E00C94692A0C9481240F93CF930E94DC
:10257000A4170E94B4290E94AE280E94A418C0E0AB
:102580008C2F0E94FA290C2F21E040E060E08EE4BD
:1025900097E00E94D528CF5FC43091F7CF910F917B
:1025A0000895AF92BF92CF92DF92EF92FF920F9376
:1025B0001F93CF93DF936C01162FC62FD0E07E01BF
:1025C000EE0CFF1C8091D10190E00E2C02C095957D
:1025D00087950A94E2F780FD56C0FE01EE0FFF1FBB
:1025E000E754FE4F20813181C9010197C816D906F1
:1025F00008F4E6C08C159D05D8F5F701E555FE4FAA
:10260000808191818C159D0508F0D3C0F701EB56B0
:10261000F64F80819181019691838083853F91401F
:1026200038F1DE01A555BE4FD0961C921182108262
:1026300080918C09882361F01F921F9386ED97E0AB
:102640009F938F930E944B200F900F900F900F90AD
:10265000CC0FDD1FC753DE4F82E390E09983888360
:10266000012F21E040E060E082EB98E00E94D52855
:10267000DF91CF911F910F91FF90EF90DF90CF905E
:10268000BF90AF9008955E012FE0A20EB11CF5013E
:10269000EE0FFF1FE555FE4F80819181DE01AA0FED
:1026A000BB1FAF53BE4F6D917C918617970708F003
:1026B00064C0D701A357B64F2D913C9111972F5F5E
:1026C0003F4F2431310508F471C01D921C9244968D
:1026D0006817790708F066C071836083CB01A0E0BA
:1026E000B0E0BC01CD014CE0660F771F881F991F39
:1026F0004A95D1F72EE734E040E050E00E943F33A6
:1027000080E098E0A0E0B0E0821B930BA40BB50B37
:10271000012F21E040E060E00E94D5288091D101A6
:1027200090E00E2C02C0959587950A94E2F780FF01
:1027300054CFCC0FDD1FC754DE4F8881998101969D
:102740008C159D0508F094CF812F0E94FA29F50180
:10275000EE0FFF1FE555FE4F82E390E091838083EB
:1027600081E090E001C0880FEA94EAF780959091AB
:10277000D10189238093D1017BCF68177907C8F6EF
:10278000D701A357B64F2D913C9111972F5F3F4F23
:102790002431310558F01D921C92449786179707F3
:1027A00008F49ACF91838083BC0198CF2D933C93FA
:1027B000C0CF225E3F4F2C153D0508F427CF58CFE0
:1027C000812F0E94DD29CC0FDD1FC753DE4F82E32E
:1027D00090E099838883012F21E040E060E082EB64
:1027E00098E00E94D52881E090E001C0880FEA942B
:1027F000EAF79091D101892B8093D10139CFAF9223
:10280000BF92CF92DF92EF92FF920F931F93CF93DD
:10281000DF936C01162FC62FD0E07E01EE0CFF1C5B
:102820008091D10190E00E2C02C0959587950A9475
:10283000E2F780FD5BC0FE01EE0FFF1FE754FE4F85
:10284000808191819C012F5F3F4F2C153D0508F43D
:10285000DAC09C0121503109C216D306E0F5F70118
:10286000E555FE4F20813181C216D30608F0C5C060
:10287000F701EB56F64F8081918101969183808319
:10288000853F914040F181E0DE01A555BE4FD096D5
:102890008C931182108280918C09882361F01F92A1
:1028A0001F9384E098E09F938F930E944B200F909A
:1028B0000F900F900F90CC0FDD1FC753DE4F82E3B8
:1028C00090E099838883012F21E040E060E08EE46E
:1028D00097E00E94D528DF91CF911F910F91FF9033
:1028E000EF90DF90CF90BF90AF9008955E012FE002
:1028F000A20EB11CF501EE0FFF1FE555FE4F8081C2
:102900009181DE01AA0FBB1FAF53BE4F6D917C9129
:102910008617970788F5D701A357B64F2D913C919D
:1029200011972F5F3F4F2431310509F48BC02D9350
:102930003C93CC0FDD1FC754DE4F888199810197EE
:10294000C816D90640F6812F0E94FA29F501EE0F2C
:10295000FF1FE555FE4F82E390E09183808381E085
:1029600090E001C0880FEA94EAF780959091D10138
:1029700089238093D101AFCF68177907D0F6D701AB
:10298000A357B64F2D913C9111972F5F3F4F2431A4
:10299000310569F61D921C9244978617970708F433
:1029A00058C091838083BC01CB01A0E0B0E0BC01A2
:1029B000CD014CE0660F771F881F991F4A95D1F70C
:1029C0002EE734E040E050E00E943F33DA01C901D5
:1029D000985FAF4FBF4F012F21E040E060E00E94C1
:1029E000D5288091D10190E00E2C02C09595879555
:1029F0000A94E2F780FD9DCF1ECF4E97C816D906E8
:102A000008F436CF68CF812F0E94DD29CC0FDD1F5F
:102A1000C753DE4F82E390E099838883012F21E042
:102A200040E060E082EB98E00E94D52881E090E0F1
:102A300001C0880FEA94EAF79091D101892B809325
:102A4000D10149CF1D921C9244966817790708F06E
:102A5000A8CF71836083A8CF60EE71E08FED91E025
:102A60000C94692AE62FF0E0EE0FFF1FE754FE4FAB
:102A7000918380830895E82FF0E0EE0FFF1FE55566
:102A8000FE4F808191810895E82FF0E0EE0FFF1F47
:102A9000ED54FE4F8081918108958091B70190910E
:102AA000B8010895CF93C82F0E94DD29EBEAF1E029
:102AB000CC0F81E090E001C0880FCA95EAF796A19B
:102AC000892B86A3CF910895CF93C82F0E94FA290E
:102AD000EBEAF1E0CC0F81E090E001C0880FCA95ED
:102AE000EAF7809596A1892386A3CF910895EBEA12
:102AF000F1E090E0880F991F019621E030E0A901F4
:102B000002C0440F551F8A95E2F7CA01809596A12D
:102B1000892386A308950F93CF93082FC62FCA0148
:102B2000A0E0B0E0BC01CD012CE0660F771F881F4C
:102B3000991F2A95D1F72EE734E040E050E00E943B
:102B40003F33C13069F0DA01C901985FAF4FBF4F21
:102B500021E040E060E00E94D528CF910F910895D8
:102B600080E098E0A0E0B0E0821B930BA40BB50BD3
:102B700021E040E060E00E94D528CF910F910895B8
:102B8000282F30E0EBEAF1E0B901660F771F6F5FA5
:102B90007F4F41E050E001C0440F6A95EAF796A1EB
:102BA000492B46A3F901EE0FFF1FEF53FE4F408163
:102BB0005181F901E555FE4F60A90C948B15E82F62
:102BC000F0E0EE0FFF1FEF53FE4F808191810895DB
:102BD000E82FF0E0EE0FFF1FE753FE4F8081918159
:102BE0000895E82FF0E0EE0FFF1FE754FE4F8081BD
:102BF00091810895E82FF0E0E555FE4F80A90895F2
:102C00008091D1010895E82FF0E0EE0FFF1FEF5300
:102C1000FE4F718360830895CF92DF92EF92FF920F
:102C20000F931F93CF93DF930BEA11E0C0E0D0E046
:102C300081E3E82E88E0F82E9FE5C92E92E0D92E98
:102C4000F801819191918F018F3FFFE79F0709F470
:102C5000B1C09F938F93DF93CF93FF92EF920E9427
:102C60004B200F900F900F900F900F900F90219688
:102C7000C430D10529F78091B7019091B8018F3FF9
:102C8000FFE79F0709F4A1C09F938F9388E492E028
:102C90009F938F930E944B200F900F900F900F9057
:102CA0008091D10186FB992790F91F929F9384FB15
:102CB000992790F91F929F9382FB992790F91F9271
:102CC0009F93982F91701F929F93982F991F9927E8
:102CD000991F1F929F9385FB992790F91F929F93AD
:102CE00083FB992790F91F929F93869581701F927D
:102CF0008F938091D0018F938091CF018F9380919A
:102D0000CE018F938091CD018F938091CC018F93D1
:102D10008091CB018F938091CA018F938091C901DB
:102D20008F938091C0018F938091BF018F93809189
:102D3000BE018F938091BD018F938091BC018F93D1
:102D40008091BB018F938091BA018F938091B901DB
:102D50008F938EE398E09F938F930E944B208DB7C3
:102D60009EB782960FB6F8949EBF0FBE8DBF82E9C4
:102D700098E00E94261BCBEDD1E00FED11E0899188
:102D8000813099F08DE998E00E94261B0C171D07F1
:102D9000B1F781EC93E0DF91CF911F910F91FF90FC
:102DA000EF90DF90CF900C94261B89E998E00E9469
:102DB000261BECCFDF93CF93DF92CF920E944B2064
:102DC0000F900F900F900F9052CF87E392E00E94E8
:102DD000261B66CFCF92DF92EF92FF920F931F9345
:102DE000CF93DF9380E00E944629EC0181E00E94AE
:102DF00046298C0182E00E9446296C0183E00E94F2
:102E000046297C018091D10181FF0BC08091DB01BB
:102E100060E0813009F479C0CE010E94FF138091F7
:102E2000D10183FF0BC08091DC0161E0813009F4A6
:102E300060C0CE010E94FF138091D10185FF0BC0BD
:102E40008091DD0162E0813009F459C0C8010E941F
:102E5000FF138091D10187FD43C0D093AC01C09393
:102E6000AB011093AE010093AD01D092B001C092BE
:102E7000AF01F092B201E092B1018FEF9FE7909322
:102E8000B4018093B3019093B6018093B5010E9481
:102E900063249093B8018093B70181E00E945C2A7B
:102EA000882321F080918C09811109C0DF91CF9195
:102EB0001F910F91FF90EF90DF90CF90089548EE13
:102EC00053E060E070E081E00E94502ADF91CF91F2
:102ED0001F910F91FF90EF90DF90CF900C940C1604
:102EE0008091DE0163E08130B1F0C8010E94FF13E0
:102EF000B4CFCE010E94D1128091D1019FCFC801E1
:102F00000E94D1128091D101A6CFCE010E94D11290
:102F10008091D10186CFC8010E94D1129ECF81E05D
:102F200080938C09089510928C0908950C94282A96
:102F30000C94172A67EE71E086EE91E00E948D2ACC
:102F40008091E6010C94B02A80E487B986B1876845
:102F500086B90895882321F0813089F08F7001C0EF
:102F600081E097B1907F97B997B1892B87B9369A4D
:102F70003699FECF84B125B190E0922B089580E080
:102F8000F0CF0C9484266DEE71E08CEE91E00C9401
:102F9000692A8091820A9091830AA091840AB09153
:102FA000850A0597A105B10509F008958091870A62
:102FB0008D3031F18F30C9F720918B0A40918A0A08
:102FC0006091890A8091880A0E948D2981E080930E
:102FD000730A84E090E0A0E0B0E08093740A9093DC
:102FE000750AA093760AB093770A82E08093780AF4
:102FF0008091870A8093790A83E79AE00C94892666
:103000008091880A0E940212E1CF81E89AE00E9432
:103010004A27811101C008950C94C917CF92DF92FD
:10302000EF92FF921F93CF93DF93142F48B321E0C9
:1030300030E0F90102C0EE0FFF1F8A95E2F7CF01E1
:103040009E2F9095492348BB97B3892B87BB8FB59B
:1030500082608FBD8EB588618EBD8FB588608FBD53
:103060008EB582608EBD80E090E00E94B72E20E099
:1030700030E040E05EE30E94452F0E94882E77BD3D
:1030800066BDC6B5D7B5612F70E080E090E00E94C4
:10309000B92E28EB3EE145E05FE30E94452F6B012E
:1030A0007C01BE0180E090E00E94B72E9B01AC0144
:1030B000C701B6010E94452F2AE037ED43E25CE3E9
:1030C0000E94452F0E94882E7093790060937800AB
:1030D000DF91CF911F91FF90EF90DF90CF900895F7
:1030E000CF92DF92EF92FF92CF93DF93C6B5D7B521
:1030F000682F70E080E090E00E94B92E28EB3EE15E
:1031000045E05FE30E94452F6B017C01BE0180E03A
:1031100090E00E94B72E9B01AC01C701B6010E944E
:10312000452F2AE037ED43E25CE30E94452F0E94E1
:10313000882E7093790060937800DF91CF91FF9093
:10314000EF90DF90CF900895A69AAE9A87B38660ED
:1031500087BBBB988DB181658DB908958FB9779B79
:10316000FECF8FB108958FEF8FB9779BFECF8FB1D0
:1031700008956623F1F0FC016150262F30E02F5FA7
:103180003F4F280F391F4FEF4FB980E090E009C043
:1031900052E05A95F1F700C00196813157E2950748
:1031A00011F0779BF5CF8FB18193E217F30761F7A9
:1031B000089508956623E1F0FC016150262F30E068
:1031C0002F5F3F4F280F391F81918FB980E090E02A
:1031D00009C042E04A95F1F700C00196813147E20B
:1031E000940711F0779BF5CFE217F30769F708957D
:1031F000089583B7846083BF87B7826087BF789460
:10320000089583B7886083BF12BE8CE781BF08959D
:1032100084EA809374008AEF02C0815031F090916B
:10322000740097FFFACF80E0089581E0089584E963
:10323000809374002AEF02C0215039F090917400FD
:10324000892F807194FDF8CF089581E008958093CF
:10325000730084E8809374008AEF02C0815031F0DB
:103260009091740097FFFACF80E0089581E008956F
:1032700084EC809374008AEF02C0815041F09091F9
:10328000740097FFFACF8091730090E0089580E07A
:1032900091E0089584E8809374008AEF02C0815021
:1032A00041F09091740097FFFACF8091730090E005
:1032B000089580E091E008951F920F920FB60F924B
:1032C00011242F933F934F935F936F937F938F932B
:1032D0009F93AF93BF93EF93FF9380917100E82F7B
:1032E000E87F8E2F90E0893C910578F5FC01E75A44
:1032F000FF4F0C94613384E08093CC091092A809AD
:103300001092A709E091C709F091C8090995809129
:10331000A709811105C081E08093A7091092A9092E
:10332000E091A80981E08E0F8093A809F0E0E755AD
:10333000F64F8081809373009091A8098091A7092E
:10334000981730F585EC80937400FF91EF91BF9151
:10335000AF919F918F917F916F915F914F913F912D
:103360002F910F900FBE0F901F901895E091B2090A
:1033700081E08E0F8093B20980917300F0E0ED54EC
:10338000F64F80839091B2098091B1099817D0F2DD
:1033900085E880937400D9CF80E380939D0984E908
:1033A000809374008AEF02C0815079F2909174008A
:1033B00094FDFACFCACF88E380939D0985EC809372
:1033C00074001092CC09C1CFE091B20981E08E0F58
:1033D0008093B20980917300F0E0ED54F64F808342
:1033E0008091CA09882309F497C084E98093740006
:1033F0008AEF03C0815009F4A8CF9091740094FD26
:10340000F9CFA3CF83E08093CC0910929E099ACF85
:1034100080919E09883008F0BBCFE0919E0981E041
:103420008E0F80939E0980917300F0E0E156F64F75
:10343000808385EC8093740088CF10929D0984E985
:10344000809374008AEF03C0815009F47ECF90917D
:10345000740094FDF9CF79CF8091CB0980937300EC
:1034600085E88093740071CF9091BC098091BB096D
:10347000981708F45AC08091CA09882309F44CC0EF
:1034800084E9809374008AEF03C0815009F45DCF12
:103490009091740094FDF9CF58CF80E280939D09FC
:1034A00084E9809374008AEF03C0815009F44DCF02
:1034B0009091740094FDF9CF48CF85EC809374000F
:1034C0001092CC0980919E09883030F4E0919E09D9
:1034D000F0E0E156F64F108260919E0970E0E091B5
:1034E000C509F091C6098FE999E0099510929E09E6
:1034F0002CCF85EC809374001092CC0926CF84E900
:10350000809374008AEF03C0815009F41ECF90911C
:10351000740094FDF9CF19CF81E08093C90984EA42
:10352000809374001092CC0910CFE091BC0981E027
:103530008E0F8093BC09F0E0E354F64F80818093B6
:10354000730085EC8093740000CFFC01EE57FF4FB1
:103550002081211106C0329720813196908181E02F
:10356000291380E00895FC01EF57FF4F2081DC0113
:10357000A20FB11D3C914FB7F89420812F5F2F7798
:10358000208331969081915090834FBF832F08956F
:103590008091F5019091F6012FB7F894FC01ED5F51
:1035A000FE4F108231961082319610822FBF80918B
:1035B000F5019091F6012FB7F894FC01E058FF4F08
:1035C000108231961082319610822FBF1092900097
:1035D00089E189B9599A8AB188698AB9E5E9F0E03F
:1035E00080818660808378940895CF93DF934091A3
:1035F000F5015091F601DA01AB5FBE4F9C919F3708
:10360000E9F39C91EA019F37B9F0CD5FDE4FFA01F3
:10361000ED57FF4F9881E90FF11D80839FB7F89414
:1036200088818F5F8F7788838C918F5F8C939FBF0A
:10363000559ADF91CF910895CD5FDE4F18829A01A0
:103640002C5F3E4FF90110821C92E1CFCF93DF93A4
:10365000EC018881882331F021960E94F51A899126
:103660008111FBCFDF91CF9108950F931F93CF93DB
:10367000DF93662371F0EC016150062F10E00F5FBD
:103680001F4F080F191F89910E94F51AC017D10703
:10369000D1F7DF91CF911F910F9108958091F5019E
:1036A0009091F60108958091F3019091F4012FB764
:1036B000F894FC01ED5FFE4F108231961082319636
:1036C00010822FBF8091F3019091F4012FB7F894ED
:1036D000FC01E058FF4F1082319610823196108223
:1036E0002FBF1092980083E080939900EAE9F0E000
:1036F000808188698083EDE9F0E080818660808345
:1037000078940895CF93DF934091F3015091F401A1
:10371000DA01AB5FBE4F9C919F37E9F39C91EA01C0
:103720009F37D9F0CD5FDE4FFA01ED57FF4F9881FB
:10373000E90FF11D80839FB7F89488818F5F8F77A1
:1037400088838C918F5F8C939FBF80919A00806259
:1037500080939A00DF91CF910895CD5FDE4F18825C
:103760009A012C5F3E4FF90110821C92DDCF0F931E
:103770001F93CF93DF93662371F0EC016150062F06
:1037800010E00F5F1F4F080F191F89910E94821BC5
:10379000C017D107D1F7DF91CF911F910F910895F5
:1037A0008091F3019091F40108951F920F920FB64A
:1037B0000F9211242F933F938F939F93AF93BF93B7
:1037C000CF93DF93EF93FF933CB18091F5019091FC
:1037D000F601FC01EE57FF4F20812F37C1F42BB1CA
:1037E0002C71216030E0FC01EA5FFE4F31832083C1
:1037F000FF91EF91DF91CF91BF91AF919F918F9109
:103800003F912F910F900FBE0F901F901895208120
:10381000DC012F37E9F0A058BF4F2C91EC01C20F0B
:10382000D11D38839FB7F8948C918F5F8F778C93DD
:1038300080818F5F80839FBFE091F501F091F60159
:103840008BB18C7190E0EA5FFE4F91838083D0CF83
:10385000A058BF4F1C92EC01CF57DF4F1882108247
:10386000DCCF1F920F920FB60F9211242F933F932C
:103870008F939F93AF93BF93CF93DF93EF93FF9378
:103880008091F5019091F601EC01CB5FDE4F28812C
:10389000222321F1DC01AC5FBE4F8D579F4F2C914D
:1038A000FC01E20FF11D90812FB7F8948C918F5F8E
:1038B0008F778C938881815088832FBF9CB9FF912B
:1038C000EF91DF91CF91BF91AF919F918F913F91F8
:1038D0002F910F900FBE0F901F901895FC01ED5F78
:1038E000FE4F3081DC01AC5FBE4F2C913213D5CF3F
:1038F0005598E5CF1F920F920FB60F9211242F9378
:103900003F938F939F93AF93BF93CF93DF93EF93A7
:10391000FF9330919C008091F3019091F401FC01A0
:10392000EE57FF4F20812F37C9F420919B002C7157
:1039300030E03160FC01EA5FFE4F31832083FF916C
:10394000EF91DF91CF91BF91AF919F918F913F9177
:103950002F910F900FBE0F901F9018952081DC01C2
:103960002F37F1F0A058BF4F2C91EC01C20FD11DA1
:1039700038839FB7F8948C918F5F8F778C93808179
:103980008F5F80839FBFE091F301F091F4018091FC
:103990009B008C7190E0EA5FFE4F91838083CFCFD4
:1039A000A058BF4F1C92EC01CF57DF4F18821082F6
:1039B000DBCF1F920F920FB60F9211242F933F93DC
:1039C0008F939F93AF93BF93CF93DF93EF93FF9327
:1039D0008091F3019091F401EC01CB5FDE4F2881DF
:1039E000222329F1DC01AC5FBE4F8D579F4F2C91F4
:1039F000FC01E20FF11D90812FB7F8948C918F5F3D
:103A00008F778C938881815088832FBF90939C00FF
:103A1000FF91EF91DF91CF91BF91AF919F918F91E6
:103A20003F912F910F900FBE0F901F901895FC01A2
:103A3000ED5FFE4F3081DC01AC5FBE4F2C91321345
:103A4000D4CF80919A008F7D80939A00E1CF2F92FE
:103A50003F924F925F926F927F928F929F92AF921E
:103A6000BF92CF92DF92EF92FF920F931F93CF936B
:103A7000DF93CDB7DEB7A8970FB6F894DEBF0FBEC1
:103A8000CDBF8C016B0166EA262E68E0362ED80188
:103A90008C91882309F473C01DA21EA21FA218A630
:103AA00016C04DA15EA16FA178A5F801E40FF51F26
:103AB00090819923B1F04DA15EA16FA178A54F5FD0
:103AC0005F4F6F4F7F4F4DA35EA36FA378A74DA1AC
:103AD0005EA16FA178A5F801E40FF51F90819532E2
:103AE00001F74DA15EA16FA178A5E42E442371F0EA
:103AF00058012FEFA21AB20AF12C03C0F5018191EF
:103B00005F010E94F51AF394EF10F8CF8DA19EA1EA
:103B1000AFA1B8A5080F191FD8018C91853209F003
:103B2000B8CF0F5F1F4F198E1A8E1B8E1C8E50E25E
:103B3000F52E0F5F1F4FF80131972081822F022E43
:103B4000000C990BAA0BBB0BFC01B597E435F105F2
:103B500078F181EAE82E88E0F82EF70181917F0163
:103B60000E94F51A2E143F0409F491CFF7018191B8
:103B70007F010E94F51A2E143F0479F788CFA8968A
:103B80000FB6F894DEBF0FBECDBFDF91CF911F916E
:103B90000F91FF90EF90DF90CF90BF90AF909F90EC
:103BA0008F907F906F905F904F903F902F900895EF
:103BB000EE5DFE4F0C94613385E20E94F51A67CFEB
:103BC000D6018D919C91A0E0B0E089A39AA3ABA30C
:103BD000BCA31D8E1E8E1F8E18A28AE090E0A0E06E
:103BE000B0E08D8B9E8BAF8BB88F198A1A8A1B8A97
:103BF0001C8AD60112966D0181E090E0A0E0B0E051
:103C00008DA39EA3AFA3B8A734C02DA13EA14FA101
:103C100058A56D897E898F89988D4D885E886F88BB
:103C2000788C8DA09EA0AFA0B8A40E942F33A301D2
:103C300092010E943F33281539054A055B0569F555
:103C40002D893E894F89588D6DA17EA18FA198A5A0
:103C50000E942F336DA37EA38FA398A7898D9A8D81
:103C6000AB8DBC8D0197A109B109898F9A8FAB8F5C
:103C7000BC8F2DA13EA14FA158A56D897E898F894A
:103C8000988D89A09AA0ABA0BCA00E942F33861665
:103C90009706A806B90608F0B8CF89899A89AB8932
:103CA000BC89892B8A2B8B2B59F0898D9A8DAB8DF2
:103CB000BC8D0197A109B109898F9A8FAB8FBC8FF9
:103CC00089899A89AB89BC89892B8A2B8B2B21F016
:103CD00090E3F91609F4ACC1898D9A8DAB8DBC8D3A
:103CE0000297A105B10548F0898D9A8DAB8DBC8DE9
:103CF0004097A105B10508F497C089899A89AB89D5
:103D0000BC89892B8A2B8B2B09F454C08D8D9E8DF9
:103D1000AF8DB8A1AC01BD014F5F5F4F6F4F7F4FBB
:103D20004D8F5E8F6F8F78A3E1E0F0E0EC0FFD1F09
:103D3000E80FF91FBDE2B0833DC04D8C5E8C6F8CE7
:103D400078A0B301A2014F5F5F4F6F4F7F4F4D8F40
:103D50005E8F6F8F78A369A17AA18BA19CA12DA101
:103D60003EA14FA158A58D889E88AF88B88CEE24BF
:103D7000E394F12CEC0EFD1EE40CF51C0E943F3385
:103D8000CA01B901A50194010E943F33FB01E95525
:103D9000F74F8081F70180832D893E894F89588DA7
:103DA0006DA17EA18FA198A50E943F332DA33EA3B4
:103DB0004FA358A78DA19EA1AFA1B8A5892B8A2B8F
:103DC0008B2B09F0BACF8D8D9E8DAF8DB8A1882336
:103DD00009F45DCE9E012F5F3F4F7901815090E045
:103DE0005C013FEFA31AB30AAE0CBF1CD7018D9143
:103DF0007D010E94F51AAE14BF04C1F748CE8D8D27
:103E00009E8DAF8DB8A1AC01BD014F5F5F4F6F4F6D
:103E10007F4F4D8F5E8F6F8F78A3E1E0F0E0EC0F66
:103E2000FD1FE80FF91FF082898D9A8DAB8DBC8D37
:103E30000197A109B109898F9A8FAB8FBC8F898DAA
:103E40009A8DAB8DBC8D892B8A2B8B2BC1F655CFD0
:103E5000203309F4E1C0898D9A8DAB8DBC8D880F1C
:103E6000991FAA1FBB1FAC01BD01440F551F661F40
:103E7000771F440F551F661F771F840F951FA61FBE
:103E8000B71F898F9A8FAB8FBC8F498D5A8D6B8DE1
:103E90007C8D022E000C330BC901C097092E000C3B
:103EA000AA0BBB0B840F951FA61FB71F898F9A8F74
:103EB000AB8FBC8F3ECEF60180819181A0E0B0E057
:103EC00089A39AA3ABA3BCA31D8E1E8E1F8E18A21E
:103ED00080E190E0A0E0B0E084CE96012E5F3F4FFD
:103EE000D6018D919C91092E000CAA0BBB0B89A3C6
:103EF0009AA3ABA3BCA31D8E1E8E1F8E18A289A1F0
:103F00009AA1ABA1BCA1B7FDAEC0198A1A8A1B8ABF
:103F10001C8A8AE090E0A0E0B0E08D8B9E8BAF8B96
:103F2000B88F690169CE760192E0E90EF11CD601E5
:103F30002D913C911DA21EA21FA218A60BC08DA1FF
:103F40009EA1AFA1B8A50196A11DB11D8DA39EA3F1
:103F5000AFA3B8A78DA19EA1AFA1B8A5F901E80FA5
:103F6000F91F80818111EBCF8DA19EA1AFA1B8A5D2
:103F7000A82E882351F06901B12CF60181916F01BF
:103F80000E94F51AB394AB10F8CF498D5A8D6B8D02
:103F90007C8D8DA19EA1AFA1B8A584179507A6071A
:103FA000B70730F54DA15EA16FA178A5898D9A8DD7
:103FB000AB8DBC8D841B950BA60BB70B898F9A8F8D
:103FC000AB8FBC8F03C080E20E94F51A898D9A8D59
:103FD000AB8DBC8DAC01BD01415051096109710926
:103FE000498F5A8F6B8F7C8F892B8A2B8B2B59F79C
:103FF00067014DCD7601F4E0EF0EF11CF6018081F2
:104000009181A281B38189A39AA3ABA3BCA389A107
:104010000E94F51A67013BCD898D9A8DAB8DBC8DC1
:10402000892B8A2B8B2B09F016CF40E3F42E13CF6C
:104030008D8D9E8DAF8DB8A1AC01BD014F5F5F4FDF
:104040006F4F7F4F4D8F5E8F6F8F78A3E1E0F0E071
:10405000EC0FFD1FE80FF91FADE2A083198A1A8A41
:104060001B8A1C8A39CE89A19AA1ABA1BCA1B095AB
:10407000A095909581959F4FAF4FBF4F89A39AA36D
:10408000ABA3BCA381E090E0A0E0B0E0898B9A8B69
:10409000AB8BBC8B3ECFCF93DF93CDB7DEB7BE01EA
:1040A0006B5F7F4FFB0181919191BF010E94271DA2
:1040B000DF91CF910895AF92BF92CF92DF92EF92AE
:1040C000FF920F931F93CF93DF93CDB7DEB7659722
:1040D0000FB6F894DEBF0FBECDBF5C010E94081979
:1040E0008EEE0E94271981E30E9427190E94081969
:1040F0008FEE0E942719CE0101967C016E0195E199
:10410000C90ED11C0E943819092F10E0012B61F44F
:10411000F70181937F01EC15FD05A1F70E944A1973
:10412000292F30E0232BC1F081E080933C0D83E008
:1041300080933D0D80E065960FB6F894DEBF0FBE0C
:10414000CDBFDF91CF911F910F91FF90EF90DF9046
:10415000CF90BF90AF90089529813A81F501328BBD
:10416000218B2B813C81348B238B9D81958B2E81E0
:104170003F81378B268B28853985318F208F9A8513
:10418000928F9B85938F2C853D85358F248F2E852F
:104190003F85378F268F988990A3998991A32A8983
:1041A0003B8933A322A39C8994A385A30E9417195A
:1041B00010923C0D10923D0D81E0BDCF0F931F93E7
:1041C000CF93DF93EC0169897A8980E090E00E94C7
:1041D000B72E20E030E040E853E40E94452F6EA364
:1041E0007FA388A799A76B897C8980E090E00E94D3
:1041F000B72E20E030E040E850E30E94452F6AA748
:104200007BA78CA79DA76D89062E000C770B880BCA
:10421000990B0E94B92E20E030E040E857E20E945E
:10422000452F6EA77FA788AB99AB6E897F897054A5
:10423000072E000C880B990B0E94B92E20E030E06D
:1042400040E855E30E94452F6AAB7BAB8CAB9DAB3E
:10425000688D798D7054072E000C880B990B0E9485
:10426000B92E20E030E040E051E30E94452F6EABD4
:104270007FAB88AF99AF6A8D062E000C770B880B49
:10428000990B0E94B92E20E030E040E85FE20E94E6
:10429000452F6AAF7BAF8CAF9DAF8E01025C1F4F85
:1042A0006B8D062E000C770B880B990B0E94B92E94
:1042B00020E030E040E05DE20E94452FF80160839D
:1042C0007183828393830C5F1F4F6C8D7D8D80E0A3
:1042D00090E00E94B72E20E030E040E051E40E94E0
:1042E000452FF80160837183828393830C5F1F4F96
:1042F0006E8D7F8D80E090E00E94B72E20E030E050
:1043000040E85CE30E94452FF8016083718382835B
:1043100093830C5F1F4F68A1062E000C770B880B50
:10432000990B0E94B92E20E030E040E85BE30E9448
:10433000452FF80160837183828393830C5F1F4F45
:1043400069A1062E000C770B880B990B0E94B92EE1
:1043500020E030E040E058E30E94452FF801608300
:104360007183828393830C5F1F4F6AA17BA180E0DE
:1043700090E00E94B72E20E030E040E857E20E9433
:10438000452FF80160837183828393830C5F1F4FF5
:104390006CA1062E000C770B880B990B0E94B92E8E
:1043A00020E030E040E857E20E94452FF8016083AA
:1043B0007183828393830C5F1F4F6DA1062E000CC7
:1043C000770B880B990B0E94B92E20E030E040E07B
:1043D0005FE10E94452FF80160837183828393839C
:1043E000DF91CF911F910F910895CF93C82F0E9415
:1043F00008198EEE0E9427198BE10E9427190E944E
:1044000008198FEE0E9427190E944A19292F30E0BF
:10441000232B41F081E080933C0D82E080933D0DA1
:10442000CF91089590E1C99F900111248F7CC82FEE
:10443000C22B0E9417190E9408198EEE0E9427199C
:104440008BE10E9427198C2F83600E942719CF913E
:104450000C941719CF9310923C0D10923D0D83E0F0
:104460000E94F5218EED9CE00E945B20C82F8EED0E
:104470009CE00E94DE208C2FCF910895AF92BF92D6
:10448000CF92DF92EF92FF920F931F93CF93DF9320
:1044900000D000D000D0CDB7DEB75C010E94081973
:1044A0008EEE0E94271984E00E9427190E940819A5
:1044B0008FEE0E9427198E010F5F1F4F6E0186E05D
:1044C000C80ED11C0E943819E92EF12CEF2869F48E
:1044D000F80181938F01EC15FD05A1F70E944A199F
:1044E0009C01892F9927892BA1F084E080933D0DB1
:1044F00026960FB6F894DEBF0FBECDBFDF91CF91E9
:104500001F910F91FF90EF90DF90CF90BF90AF90F1
:1045100008958B814A8150E060E070E0762F652F2E
:10452000542F4427682B8981482B8C819D816C01F5
:10453000E12CF12CC901A0E0B0E0DC01992788272B
:104540008C299D29AE29BF29F50180839183A283FF
:10455000B38340875187628773870E94171910922F
:104560003C0D10923D0DC4CF4F925F926F927F929F
:104570008F929F92AF92BF92CF92DF92EF92FF9273
:104580000F931F93CF93DF93CDB7DEB72E970FB660
:10459000F894DEBF0FBECDBF9E878D87DC011496D9
:1045A000CD90DD90ED90FC901797A7019601C70183
:1045B000B6010E94452F2B013C019B01AC01C701B4
:1045C000B6010E94452F69837A838B839C83ED8596
:1045D000FE85EA5BFF4F2081318142815381C70113
:1045E000B6010E94452FED85FE85EE5BFF4F2081D1
:1045F0003181428153810E94A32D4B015C01ED85E5
:10460000FE85E65BFF4F2081318142815381C301EA
:10461000B2010E94452F9B01AC01C501B4010E946B
:10462000A32D4B015C01ED85FE85E25BFF4F2081F0
:1046300031814281538169817A818B819C810E9481
:10464000452F9B01AC01C501B4010E94A32D6D83D0
:104650007E838F83988760934A0D70934B0D809370
:104660004C0D90934D0DED85FE856085718582859D
:1046700093850E94B92E4B015C01AD85BE85D6960F
:104680002D913D914D915C91D997C701B6010E9442
:10469000452FED85FE8522A933A944A955A90E947D
:1046A000A32D69877A878B879C87AD85BE85DA962F
:1046B0002D913D914D915C91DD97C301B2010E9416
:1046C000452F9B01AC0169857A858B859C850E946D
:1046D000A32D2B013C01ED85FE85FE9620813181C5
:1046E0004281538169817A818B819C810E94452F0F
:1046F0009B01AC01C301B2010E94A32DA50194014D
:104700000E94452F69837A838B839C836093DA0CA4
:104710007093DB0C8093DC0C9093DD0CA50194016D
:10472000C501B4010E94452F2B013C016093460D49
:104730007093470D8093480D9093490DED85FE854C
:10474000EA5AFF4F2081318142815381C701B6016E
:104750000E94452FED85FE85EE5AFF4F2081318165
:10476000428153810E94A32D9B01AC0160934E0DA9
:1047700070934F0D8093500D9093510DC301B20172
:104780000E94452F6B017C0160933E0D70933F0D9D
:104790008093400D9093410D0D851E85065A1F4F45
:1047A000A3019201C501B4010E94452FF8012081A7
:1047B0003181428153810E94452F4B015C016093FE
:1047C000420D7093430D8093440D9093450D2981C4
:1047D0003A814B815C816D817E818F8198850E94B9
:1047E000A32DA70196010E94A32DA50194010E946B
:1047F000A32DAD85BE851C966D937D938D939C9363
:104800001F972E960FB6F894DEBF0FBECDBFDF9177
:10481000CF911F910F91FF90EF90DF90CF90BF90BD
:10482000AF909F908F907F906F905F904F90089582
:104830008F929F92AF92BF92CF92DF92EF92FF92B0
:10484000CF93DF930E942A228EED9CE00E943E22AD
:10485000CEEDDCE0688179818A819B810E94B92E4E
:104860002EA13FA148A559A50E94A22D6B017C0154
:104870009B01AC010E94452F2EA53FA548A959A92F
:104880000E94452F4B015C012AA53BA54CA55DA5C7
:10489000C701B6010E94452F9B01AC01C501B401BF
:1048A0000E94A32D6C837D838E839F83CE01DF9135
:1048B000CF91FF90EF90DF90CF90BF90AF909F90FF
:1048C0008F900C94B42280913D0D882319F08FEFC6
:1048D0009FE708956091E20C7091E30C8091E40CE5
:1048E0009091E50C0E94812E9B01220F331F660FD1
:1048F000771F660F771F660F771FC901860F971FF7
:10490000089580913D0D882319F08FEF9FE708955A
:1049100020E030E040E251E46091EA0C7091EB0C51
:104920008091EC0C9091ED0C0E940F2E0E94812E34
:10493000CB010895CF93DF93D82FC62F0E9408197B
:1049400084ED0E9427198D2F0E9427198C2F0E9419
:104950002719DF91CF910C941719AF92BF92CF9284
:10496000DF92EF92FF921F93CF93DF93C82F7B01CB
:10497000A42E0E94081984ED0E9427198C2F0E94F2
:1049800027190E94081985ED0E942719B12C65018D
:1049900081E0C81AD1081C141D047CF410E080E0EA
:1049A00090E0E701C80FD91F0E94381988831F5F64
:1049B000812F90E08C159D05A4F381E0A81AB10821
:1049C000E701CA0DDB1D0E944A198883DF91CF9150
:1049D0001F91FF90EF90DF90CF90BF90AF900C941D
:1049E00017191092CD0968E580E10E949A2464E5C8
:1049F00081E10E949A240E94081984ED0E942719DF
:104A000082E20E9427190E94081985ED0E94271949
:104A10000E944A19292F30E081E0232B09F40895E0
:104A20008093CD090E94171980E00895EF92FF92BC
:104A30000F931F93CF93DF93CDB7DEB72C970FB6AD
:104A4000F894DEBF0FBECDBF8C017B014CE0BE01F0
:104A50006F5F7F4F82E20E94AD248091CD09882351
:104A6000E9F08FEF9FE7F70191838083938382833F
:104A700095838483F80191838083938382839583D4
:104A800084832C960FB6F894DEBF0FBECDBFDF91A6
:104A9000CF911F910F91FF90EF90089569817A81D6
:104AA000072E000C880B990B0E94B92E20E030E0F5
:104AB0004CE851E40E94452F20E030E04AE754E4FE
:104AC0000E940F2E0E94812EF701718360836B81FB
:104AD0007C81072E000C880B990B0E94B92E20E0D8
:104AE00030E04CE851E40E94452F20E030E04AE7F6
:104AF00054E40E940F2E0E94812EF701738362837B
:104B00006D817E81072E000C880B990B0E94B92EB7
:104B100020E030E04CE851E40E94452F20E030E0F6
:104B20004AE754E40E940F2E0E94812EF7017583FC
:104B300064836F817885072E000C880B990B0E9487
:104B4000B92E23E23BED49E75EE30E94452F0E9428
:104B5000812EF8017183608369857A85072E000CA8
:104B6000880B990B0E94B92E23E23BED49E75EE3E7
:104B70000E94452F0E94812EF801738362836B850A
:104B80007C85072E000C880B990B0E94B92E23E21E
:104B90003BED49E75EE30E94452F0E94812EF8011C
:104BA000758364836ECF0F931F93E4E5FDE0638309
:104BB0007283AA27BB278C019D01000F111F221FA2
:104BC000331F000F111F221F331F000F111F221F41
:104BD000331F682F6370685F802F807E680F6B7E45
:104BE000618310831F910F910895CF93DF93CDB709
:104BF000DEB7A0970FB6F894DEBF0FBECDBF0E9400
:104C0000FD2783ED90E30197F1F700C000001D82BE
:104C10001E821F82188619821A821B821C821D8E98
:104C20001E8E1F8E18A2198E88E08A8F1B8E1C8EF6
:104C30001D8A1E8A1F8A188E198A1A8A1B8A1C8A44
:104C40001D861E861F86188A19868A871B861C86E3
:104C50000E944D28882309F44EC0AE014B5F5F4F80
:104C600063E280E20E946128AE014F5F5F4F67E21E
:104C700084E20E946128AE01435E5F4F63E080E002
:104C80000E946128AE01475E5F4F67E084E00E94AA
:104C90006128AE014B5E5F4F6BE088E00E946128A7
:104CA000AE014F5E5F4F63E180E10E946128AE017B
:104CB000435F5F4F67E184E10E946128AE01475F77
:104CC0005F4F6BE188E10E94612864E080E60E940A
:104CD000232861E080E70E94232860E08AE20E94A6
:104CE000232861ED89E20E94232861E888E20E947E
:104CF00023280E943A28A0960FB6F894DEBF0FBE74
:104D0000CDBFDF91CF910895A69A0E94A4180C946C
:104D1000F525CF93DF93EC011092540D1092550DB1
:104D20001092560D1092570D0E9480288093530DBB
:104D300082FD36C069817A818B819C8128812230F5
:104D400009F49FC01092560D1092570DDC01CB0153
:104D5000880F991FAA1FBB1F880F991FAA1FBB1F6F
:104D6000880F991FAA1FBB1F880F991FAA1FBB1F5F
:104D7000880F991FAA1FBB1F8093550D9093540D48
:104D80009E012A5F3F4F4D8164E57DE080E40E94F3
:104D9000912881E80E947B2881E0DF91CF910895DE
:104DA00084FD36C069817A818B819C812881223083
:104DB00009F46AC01092560D1092570DDC01CB0118
:104DC000880F991FAA1FBB1F880F991FAA1FBB1FFF
:104DD000880F991FAA1FBB1F880F991FAA1FBB1FEF
:104DE000880F991FAA1FBB1F8093550D9093540DD8
:104DF0009E012A5F3F4F4D8164E57DE082E40E9481
:104E0000912882E80E947B2881E0DF91CF9108956C
:104E100086FD35C069817A818B819C812881223011
:104E2000B1F11092560D1092570DDC01CB01880F95
:104E3000991FAA1FBB1F880F991FAA1FBB1F880F8E
:104E4000991FAA1FBB1F880F991FAA1FBB1F880F7E
:104E5000991FAA1FBB1F8093550D9093540D9E015F
:104E60002A5F3F4F4D8164E57DE084E40E949128F4
:104E700084E80E947B2881E0DF91CF91089580E053
:104E80008CCF0E94D3257CCF0E94D325B1CF0E9426
:104E9000D325E5CFFF920F931F93CF93DF93CDB729
:104EA000DEB72D970FB6F894DEBF0FBECDBF8C01D5
:104EB0000E948928F82E807C09F44DC0F6FC4DC074
:104EC000803809F492C08F2D8871803109F451C067
:104ED00081E0F8018083898190E0880F991F880F15
:104EE000991F880F991F092E000CAA0BBB0B2A8152
:104EF000229526952770820F911DA11DB11D8183DA
:104F00009283A383B4838D81F80185838823B1F0D4
:104F1000A8014A5F5F4F20E0822F90E0FA01E80F7E
:104F2000F91FA6E0B0E0AC0FBD1FA80FB91F8C9110
:104F300080832F5FF8018581281770F381E02D961B
:104F40000FB6F894DEBF0FBECDBFDF91CF911F919A
:104F50000F91FF90089580E0F2CF4DE0BE016F5FAA
:104F60007F4F80E90E9412288F2D8871803109F0CF
:104F7000AFCF82E0F80180832A81898190E0880F99
:104F8000991F880F991F880F991F092E000CAA0BD3
:104F9000BB0B322F329536953770830F911DA11DB3
:104FA000B11D880F991FAA1FBB1F880F991FAA1F29
:104FB000BB1F2370820F911DA11DB11DBA2FA92FF8
:104FC000982F88272B81820F911DA11DB11DBA2F0B
:104FD000A92F982F88272C81820F911DA11DB11D0B
:104FE00081839283A383B4838ECF4DE0BE016F5F34
:104FF0007F4F84E90E94122866CFAE9880EC0E9411
:10500000AE18AE9A0895CF93C82FAE9883E00E9451
:10501000AE188C2F0E94AE1880E00E94AE18AE9A97
:10502000CF9108951F93CF93DF93EB01142FAE9888
:105030000E94AE18612FCE010E94B918AE9ADF917E
:10504000CF911F910895CF93DF9300D0CDB7DEB7F6
:1050500089836A83AE9882E00E94AE1889810E949B
:10506000AE188A810E94AE18AE9A0F900F90DF9111
:10507000CF910895CF9360E08FE00E942328CAE08B
:105080008EE00E940328807E29F0C150C9F780E09D
:10509000CF91089581E0CF910895CF9360E88FE09C
:1050A0000E942328CAE08EE00E940328807E803878
:1050B00029F0C150C1F780E0CF91089581E0CF91F0
:1050C00008950F931F93CF93DF93D82FC62F8A0194
:1050D000AE9882E00E94AE188D2F0E94AE1861E05B
:1050E0006C0F6D1BC8010E94DA18AE9ADF91CF9148
:1050F0001F910F910895AE980E94AE18AE9A089530
:10510000AE9880EA0E94AE1880E00E94AE18AE9A77
:105110000895AE9880EB0E94AE180E94B318AE9A24
:105120000895EF92FF920F931F93CF937B01C42FAB
:105130008901AE980E94AE1864E0C7010E94DA1897
:105140008C2F0E94AE186C2FC8010E94DA18AE9AFC
:10515000CF911F910F91FF90EF900895BC9AD79A2D
:10516000139AD19AD09A0C94A418813061F048F027
:10517000823019F0833019F008951B980895D9985A
:105180000895C4980895DF980895813061F048F03B
:10519000823019F0833019F008951B9A0895D99A36
:1051A0000895C49A0895DF9A0895AF92BF92CF925E
:1051B000DF92EF92FF920F931F93CF93DF93CDB7C0
:1051C000DEB728970FB6F894DEBF0FBECDBF043010
:1051D00090F081E028960FB6F894DEBF0FBECDBFE9
:1051E000DF91CF911F910F91FF90EF90DF90CF90C3
:1051F000BF90AF900895122FB42EA62E6C01802F71
:105200000E94B528E02EF12CC6019F70EE0CFF1C09
:10521000E1E0F0E0EC0FFD1FEE0DFF1D80839F70BD
:105220008181807F892B81838181A11029C0806148
:105230008183E1E0F0E0EC0FFD1FEE0DFF1D8181A9
:10524000BB2009F18F7D818381E090E08C0F9D1F51
:10525000E80EF91EF701818110FB86F981838181B7
:105260008F77818381810E94AE18F70180810E942F
:10527000AE18802F0E94C528D898D89A80E0AACF6F
:105280008F7E8183D6CF80628183DECF0E94AA1772
:10529000880F991FFC01E251FC4F25913491C901FF
:1052A0008C509E4F853C994018F08FEF9FE70895F2
:1052B000C9010895FC0194988C9AF8942FEF260F59
:1052C000662309F428C092B3892F8F7E90610190E4
:1052D000008009D0029007D001900190019003D086
:1052E000019001D015C008D007D006D005D004D059
:1052F00003D002D001D00895001C9093320010F02A
:10530000809332000000000010F480933200089572
:10531000215008F0D8CF789408958093580D609369
:10532000590D40935A0D20935B0DEBE2FAE0808318
:1053300061834283238334969AE0E335F907B9F712
:105340006AE08BE29AE00C945A2920E040E060E0A9
:1053500080E00C948D296091580D7091590D8091C9
:105360005A0D90915B0D0895E5E6F0E080818F7E07
:10537000808380818B7F8083DC98C098A4E6B0E036
:105380008C9180618C938C9184608C93D49AB89A20
:105390008C91877F8C938D98D698D598D398D298F6
:1053A00017981698808188608083959ADE9ADD9A96
:1053B000DB9ADA9A1F9A1E9A08958130A1F060F064
:1053C000823029F0833031F4C09A80E00895DC9A6D
:1053D00080E0089581E00895809165008061809368
:1053E000650080E008958091650084608093650089
:1053F00080E008958130A1F060F0823029F08330A0
:1054000031F4C09880E00895DC9880E0089581E050
:105410000895809165008F7E8093650080E00895F7
:10542000809165008B7F8093650080E00895E4E6BD
:10543000F0E080818160808380818D7F8083E5E6DC
:10544000F0E080818260808380818E7F80830895F8
:10545000E5E6F0E080818160808380818E7F8083BB
:10546000089510925D0D10925C0D1092ED0910924E
:10547000CE098CE3EEEEF9E0DF011D928A95E9F7A3
:105480008EE1EFECF9E0DF011D928A95E9F788E003
:10549000EEE5FDE0DF011D928A95E9F70C94011914
:1054A000823008F00895E82FF0E0EE0FFF1FE25A77
:1054B000F24F518340830895E82FF0E0EE0FFF1F75
:1054C000E25AF24F2081318181E0232B09F080E004
:1054D0000895DC01892BF9F061157105E1F09091D7
:1054E000ED099930C0F4292F30E0F901EE0FFF1FCC
:1054F000E20FF31FEE0FFF1FE251F64F7583648337
:1055000011821382128281E080839C939F5F90932B
:10551000ED0980E0089581E00895DC01892BF1F028
:1055200061157105D9F09091CE099430B8F4292F06
:1055300030E0F901EE0FFF1FE20FF31FEE0FFF1F28
:10554000E153F64F758364831082118213821282B5
:105550009C939F5F9093CE0980E0089581E0089529
:105560009091CE09891780F490E0FC01EE0FFF1FA7
:10557000E80FF91FEE0FFF1FE153F64F138212825F
:1055800081E0808380E0089581E0089580915C0D42
:1055900090915D0D019690935D0D80935C0D8091CF
:1055A000ED09882379F1EEEEF9E0815090E0019663
:1055B0009C01220F331F820F931F880F991F825166
:1055C000964F04C03696E817F907E1F0A481B5813B
:1055D0002C912130B9F720812130A1F742815381EC
:1055E0004F5F5F4F5383428312966D917C91139767
:1055F0004617570738F31382128221833696E8172D
:10560000F90721F74091CE09442331F1EFECF9E09D
:1056100080E004C08F5F36968417F1F0908191305E
:10562000C9F7228133812F5F3F4F33832283A481C7
:10563000B58111966D917C9112972617370750F31B
:105640009183138212822C91223009F090E0908392
:105650008F5F36968413E2CF80915E0D90915F0D3F
:10566000892B49F080915E0D90915F0D0197909389
:105670005F0D80935E0D8091600D9091610D892B7F
:1056800049F08091600D9091610D01979093610DAB
:105690008093600D08950C94F918CF932091ED0933
:1056A000222329F1C0E003C0CF5FC21700F58C2F81
:1056B00090E0FC01EE0FFF1FE80FF91FEE0FFF1F38
:1056C000E251F64F8181813079F78081813061F735
:1056D00011820480F581E02D0480F581E02D309762
:1056E00019F309952091ED09CF5FC21700F32091BE
:1056F000CE09222311F1C0E003C0CF5FC217E8F446
:105700008C2F90E0FC01EE0FFF1FE80FF91FEE0F4A
:10571000FF1FE153F64F8181813079F711820480B8
:10572000F581E02D0380F481E02D309731F3099568
:105730002091CE09CF5FC21718F3CF9108951F9221
:105740000F920FB60F9211242F933F934F935F93B5
:105750006F937F938F939F93AF93BF93EF93FF9339
:105760000E94C62AFF91EF91BF91AF919F918F91B7
:105770007F916F915F914F913F912F910F900FBE4D
:105780000F901F901895FC015FEF540F442309F10F
:10579000DB012D912F27322F32953F70922F9327C7
:1057A000292F30E0FE2FEE27E227F327C901982F9B
:1057B00088279295907FE827F927220F331F22959B
:1057C0003295307F3227207F3227E227F32751504E
:1057D00000F7CF0108958093620D10922A0A089570
:1057E000EF92FF920F93CF93DF93E7013AEC388368
:1057F0003091620D39832A834B830C83F701ED5B73
:10580000FF4F2FEE2083009741F131E0340F3B83AF
:10581000FC0180818D8381E0442361F0FB01282F0E
:10582000240F9191DE01A80FB11D15969C938F5FF7
:105830008213F7CF44E0430FBE016F5F7F4F80E0DC
:1058400090E00E94C32BCF5BDF4F99838883DF9169
:10585000CF910F91FF90EF900895342F80E0DCCF2F
:10586000EF92FF920F93CF93DF931F92CDB7DEB7E6
:105870008983013061F007E0CE0101960E94F02B90
:105880000F90DF91CF910F91FF90EF90089508E076
:10589000CE0101960E94F02B0F90DF91CF910F91D6
:1058A000FF90EF900895EF92FF920F931F93CF9385
:1058B000DF93DC01FB01EC01CF5BDF4F1881098135
:1058C0008C91808311968C911197818312968C9183
:1058D0001297828313968C911397838314968C91DD
:1058E0001497848313968C911397882309F4B8C076
:1058F00090E025E08BEDE82E6DEB3EEDF32E7CED98
:105900000EC03F3E09F44FC038833D3B09F454C0FC
:105910002F5F9F5F13968C9113979817B8F4ED0142
:10592000C90FD11D3D81EF01C20FD11D3A3C49F78E
:10593000688381E0820FEF01C80FD11D2E5F78834D
:105940009F5F13968C911397981748F3A22FB0E09E
:1059500081E0820F682F70E0AE0FBF1F0A3CA1F1FB
:105960000F3E09F44CC00C930D3B09F454C01A3C93
:10597000C1F11F3E09F459C01D3B09F464C091E018
:10598000980FDF01A60FB71F1C93E90FF11D8FEED3
:1059900080839F5FFA019083DF91CF911F910F91D8
:1059A000FF90EF900895688381E0820FEF01C80FA8
:1059B000D11D2E5FF882ADCF81E0820FEF01C80FBD
:1059C000D11D2E5FE882A5CF8DEB8C9382E0820FF4
:1059D000DF01A60FB71F9CED9C93682F70E01A3C67
:1059E00041F6DF01A60FB71F9DEB9C9392E0980F45
:1059F0008F5FDF01A80FB11D8CED8C93C6CF8DEBAF
:105A00008C9382E0820FDF01A60FB71F9EED9C935F
:105A1000682F70E0ACCF82E0820FDF01A60FB71FC6
:105A20009BED9C93682F70E0A2CFDF01A60FB71FFC
:105A30009DEB9C9392E0980F8F5FDF01A80FB11D43
:105A40008EED8C93A2CFDF01A60FB71F1C9392E0BF
:105A5000980F8F5FDF01A80FB11D8BED8C9395CF51
:105A600086E066E070E0A5E0B0E025E075CF0F933A
:105A70001F93CF93DF93DC01653038F482E090E030
:105A8000DF91CF911F910F9108958C91FA0181833D
:105A900011968C911197828312968C911297838321
:105AA00013969C911397948370E0EB012297C53075
:105AB000D1058CF094E0FD01E90FF11D20813CEF50
:105AC000390FFA01E30FF11D25839F5F292F30E085
:105AD0002C173D0784F38D3338F086E090E0DF919A
